:020000040000FA
:10000000180B060C1A06040C3A06020C30093005CF
:100010007A00080C310075000304120A070C30093D
:10002000090A2E09660603053503F102110A270C99
:10003000D90194014306280A3F0C94014306280A7B
:1000400014022400A4041502A40520006400B402D4
:100050006607280A0008100206000008050C0000C8
:1000600032000000F202310A0008380CD6012200EA
:10007000FF0843083608340820086E08650865083C
:100080006408730820084808650872084D08490884
:1000900044084908200869086E0874086508720851
:1000A0006608610863086508200831082E083008D2
:1000B0002108000C3800270C340036007A00300488
:1000C00004008607580B6607010910020600460760
:1000D000600AF80566070109140296014306AD0A95
:1000E00016022400000264003700B6026607010908
:1000F000FD0C1707200F0600040F060066073A05DF
:10010000FD0C3707200F5707040F060066071A0576
:10011000890AFD0C7707200F0600660701093409DC
:1001200066070109FD0CD707200F0600040F060023
:1001300066073A05FD0C9707200FB707040F060066
:1001400066071A05A30AFD0CF707200F06006607CD
:1001500001093409F807B70A690A000C3800270CAE
:100160003400360066070109FD0C3700760A660781
:10017000010934093409660701093409340966079D
:10018000010934095E0A080C3800270C34003600D7
:10019000B0052B0966070E094606D20A8607580BDA
:1001A0000400CA0A300566070E09140296014306C8
:1001B000FF0A1602240000026400370066070E09D9
:1001C000B602080C380066070E094606A607E30AC1
:1001D000FD0C37030307200F0306040F0600660714
:1001E0000E09A6074606EF0AFD0C0600F802E30A10
:1001F0003006D30A66070E094606FA0ACA0A270C11
:100200003400360066070E09FD0C37003004E10AA1
:1002100010026607060F0600040010026607060FAC
:1002200006008607580B10026607060F0600080B2B
:100230002500640004006100060C02006600FF0C4B
:1002400030002B098606280BF3022C0B640C3300BC
:1002500030042B09FF0C300930052B0904008606F9
:100260002E0B8607310B210C36000400080C3100E0
:1002700077000304A6063A0B460603053703A607D4
:100280003F0BF1023A0BF602460B4B0B3509970177
:1002900043071F0B350BB00430042B09510C3009F8
:1002A00017024306080B1F0E3900F707590AC30A45
:0C02B0005005B0052B0986075B0B1F0BE7
:021FFE00EE0FE4
:00000001FF
